:020000000528D1
:10000800AF288316031306309F000130870086014E
:1000180085018730810083120C308100A3018F0194
:100028008E01A101A201313090008B168B1751204F
:10003800201C1C2820102208A5002108A400240840
:10004800031D2A282508053C03182C2830202E28B3
:10005800A501A40141201C282508A7002408A60002
:10006800A501A4010430AB002708A507260803183A
:10007800260FA407AB0B3828080076206E207220C4
:100088002808A2202908A2202A08A22020306620B9
:10009800483066207A306620080038305E20AA2072
:1000A8000C305E20A52006305E20A52001305E20A1
:1000B800AA20080086000510851005150000051106
:1000C800A5200800860005148510051500000511F7
:1000D800A520080001305E20AA20080080305E209C
:1000E800AA200800A801A901AA012508AB00240834
:1000F800A600A60803198E2803302602031C8928A7
:10010800E7302B02031C89288F280930A800A90092
:10011800AA0008008F28A801A90164302B02031C3B
:100128009828AB00A80A91280A302B02031C9F28A4
:10013800AB00A90A98282B08AA000800303E6620C0
:100148000800FF30AC00AC0BA7280800A520A520AC
:10015800A520A52008000B1DC3280C308100A30A88
:1001680004302302031DC22810100E08A2000F0835
:10017800A1008E018F0110142014A3010B11090096
:02400E00793FF8
:00000001FF
